{
  "_format": "hh-sol-artifact-1",
  "contractName": "DeFiScheme",
  "sourceName": "contracts/DeFiScheme.sol",
  "abi": [
    {
      "anonymous": false,
      "inputs": [
        {
          "indexed": true,
          "internalType": "address",
          "name": "user",
          "type": "address"
        },
        {
          "indexed": false,
          "internalType": "uint256",
          "name": "amount",
          "type": "uint256"
        }
      ],
      "name": "InterestPaid",
      "type": "event"
    },
    {
      "anonymous": false,
      "inputs": [
        {
          "indexed": true,
          "internalType": "address",
          "name": "user",
          "type": "address"
        },
        {
          "indexed": false,
          "internalType": "uint256",
          "name": "amount",
          "type": "uint256"
        }
      ],
      "name": "Invested",
      "type": "event"
    },
    {
      "anonymous": false,
      "inputs": [
        {
          "indexed": true,
          "internalType": "address",
          "name": "user",
          "type": "address"
        },
        {
          "indexed": false,
          "internalType": "uint256",
          "name": "amount",
          "type": "uint256"
        }
      ],
      "name": "Withdrawn",
      "type": "event"
    },
    {
      "inputs": [
        {
          "internalType": "address",
          "name": "",
          "type": "address"
        }
      ],
      "name": "balances",
      "outputs": [
        {
          "internalType": "uint256",
          "name": "",
          "type": "uint256"
        }
      ],
      "stateMutability": "view",
      "type": "function"
    },
    {
      "inputs": [
        {
          "internalType": "address",
          "name": "user",
          "type": "address"
        }
      ],
      "name": "getInterest",
      "outputs": [
        {
          "internalType": "uint256",
          "name": "",
          "type": "uint256"
        }
      ],
      "stateMutability": "view",
      "type": "function"
    },
    {
      "inputs": [
        {
          "internalType": "address",
          "name": "",
          "type": "address"
        }
      ],
      "name": "interestEarned",
      "outputs": [
        {
          "internalType": "uint256",
          "name": "",
          "type": "uint256"
        }
      ],
      "stateMutability": "view",
      "type": "function"
    },
    {
      "inputs": [],
      "name": "invest",
      "outputs": [],
      "stateMutability": "payable",
      "type": "function"
    },
    {
      "inputs": [
        {
          "internalType": "uint256",
          "name": "amount",
          "type": "uint256"
        }
      ],
      "name": "withdraw",
      "outputs": [],
      "stateMutability": "nonpayable",
      "type": "function"
    },
    {
      "inputs": [],
      "name": "withdrawInterest",
      "outputs": [],
      "stateMutability": "nonpayable",
      "type": "function"
    },
    {
      "stateMutability": "payable",
      "type": "receive"
    }
  ],
  "bytecode": "0x608060405234801561001057600080fd5b506109ed806100206000396000f3fe6080604052600436106100585760003560e01c806263750c1461006457806327e235e31461007b5780632e1a7d4d146100b85780633c81bd1c146100e15780637aaa34701461011e578063e8b5e51f1461015b5761005f565b3661005f57005b600080fd5b34801561007057600080fd5b50610079610165565b005b34801561008757600080fd5b506100a2600480360381019061009d919061066f565b6102c9565b6040516100af91906106b5565b60405180910390f35b3480156100c457600080fd5b506100df60048036038101906100da91906106fc565b6102e1565b005b3480156100ed57600080fd5b506101086004803603810190610103919061066f565b61044f565b60405161011591906106b5565b60405180910390f35b34801561012a57600080fd5b506101456004803603810190610140919061066f565b610467565b60405161015291906106b5565b60405180910390f35b6101636104b0565b005b6000600160003373ffffffffffffffffffffffffffffffffffffffff1673ffffffffffffffffffffffffffffffffffffffff168152602001908152602001600020549050600081116101ec576040517f08c379a00000000000000000000000000000000000000000000000000000000081526004016101e390610786565b60405180910390fd5b6000600160003373ffffffffffffffffffffffffffffffffffffffff1673ffffffffffffffffffffffffffffffffffffffff168152602001908152602001600020819055503373ffffffffffffffffffffffffffffffffffffffff166108fc829081150290604051600060405180830381858888f19350505050158015610277573d6000803e3d6000fd5b503373ffffffffffffffffffffffffffffffffffffffff167f16cbc685358ca7d4e6b273dcdf2cb5d18c80b950aa2319b519756cd016233a6c826040516102be91906106b5565b60405180910390a250565b60006020528060005260406000206000915090505481565b806000803373ffffffffffffffffffffffffffffffffffffffff1673ffffffffffffffffffffffffffffffffffffffff168152602001908152602001600020541015610362576040517f08c379a0000000000000000000000000000000000000000000000000000000008152600401610359906107f2565b60405180910390fd5b806000803373ffffffffffffffffffffffffffffffffffffffff1673ffffffffffffffffffffffffffffffffffffffff16815260200190815260200160002060008282546103b09190610841565b925050819055503373ffffffffffffffffffffffffffffffffffffffff166108fc829081150290604051600060405180830381858888f193505050501580156103fd573d6000803e3d6000fd5b503373ffffffffffffffffffffffffffffffffffffffff167f7084f5476618d8e60b11ef0d7d3f06914655adb8793e28ff7f018d4c76d505d58260405161044491906106b5565b60405180910390a250565b60016020528060005260406000206000915090505481565b6000600160008373ffffffffffffffffffffffffffffffffffffffff1673ffffffffffffffffffffffffffffffffffffffff168152602001908152602001600020549050919050565b600034116104f3576040517f08c379a00000000000000000000000000000000000000000000000000000000081526004016104ea906108c1565b60405180910390fd5b346000803373ffffffffffffffffffffffffffffffffffffffff1673ffffffffffffffffffffffffffffffffffffffff168152602001908152602001600020600082825461054191906108e1565b9250508190555060006064600a346105599190610915565b6105639190610986565b905080600160003373ffffffffffffffffffffffffffffffffffffffff1673ffffffffffffffffffffffffffffffffffffffff16815260200190815260200160002060008282546105b491906108e1565b925050819055503373ffffffffffffffffffffffffffffffffffffffff167fc3f75dfc78f6efac88ad5abb5e606276b903647d97b2a62a1ef89840a658bbc33460405161060191906106b5565b60405180910390a250565b600080fd5b600073ffffffffffffffffffffffffffffffffffffffff82169050919050565b600061063c82610611565b9050919050565b61064c81610631565b811461065757600080fd5b50565b60008135905061066981610643565b92915050565b6000602082840312156106855761068461060c565b5b60006106938482850161065a565b91505092915050565b6000819050919050565b6106af8161069c565b82525050565b60006020820190506106ca60008301846106a6565b92915050565b6106d98161069c565b81146106e457600080fd5b50565b6000813590506106f6816106d0565b92915050565b6000602082840312156107125761071161060c565b5b6000610720848285016106e7565b91505092915050565b600082825260208201905092915050565b7f4e6f20696e746572657374206561726e65640000000000000000000000000000600082015250565b6000610770601283610729565b915061077b8261073a565b602082019050919050565b6000602082019050818103600083015261079f81610763565b9050919050565b7f496e73756666696369656e742062616c616e6365000000000000000000000000600082015250565b60006107dc601483610729565b91506107e7826107a6565b602082019050919050565b6000602082019050818103600083015261080b816107cf565b9050919050565b7f4e487b7100000000000000000000000000000000000000000000000000000000600052601160045260246000fd5b600061084c8261069c565b91506108578361069c565b925082820390508181111561086f5761086e610812565b5b92915050565b7f4d7573742073656e642045544820746f20696e76657374000000000000000000600082015250565b60006108ab601783610729565b91506108b682610875565b602082019050919050565b600060208201905081810360008301526108da8161089e565b9050919050565b60006108ec8261069c565b91506108f78361069c565b925082820190508082111561090f5761090e610812565b5b92915050565b60006109208261069c565b915061092b8361069c565b92508282026109398161069c565b915082820484148315176109505761094f610812565b5b5092915050565b7f4e487b7100000000000000000000000000000000000000000000000000000000600052601260045260246000fd5b60006109918261069c565b915061099c8361069c565b9250826109ac576109ab610957565b5b82820490509291505056fea2646970667358221220273489e1e813c2ba3a79c70cb4ed158be8fb5edd27a4f6048953b66e4192219b64736f6c63430008140033",
  "linkReferences": {},
  "deployedLinkReferences": {}
}